{
  "contractName": "ProductAccessory",
  "abi": [
    {
      "constant": false,
      "inputs": [
        {
          "internalType": "address",
          "name": "_proxyRegistryAddress",
          "type": "address"
        }
      ],
      "stateMutability": "nonpayable",
      "type": "constructor"
    },
    {
      "anonymous": false,
      "inputs": [
        {
          "indexed": true,
          "internalType": "address",
          "name": "account",
          "type": "address"
        },
        {
          "indexed": true,
          "internalType": "address",
          "name": "operator",
          "type": "address"
        },
        {
          "indexed": false,
          "internalType": "bool",
          "name": "approved",
          "type": "bool"
        }
      ],
      "name": "ApprovalForAll",
      "type": "event"
    },
    {
      "anonymous": false,
      "inputs": [
        {
          "indexed": false,
          "internalType": "uint256",
          "name": "token_id",
          "type": "uint256"
        },
        {
          "indexed": false,
          "internalType": "uint256",
          "name": "product_id",
          "type": "uint256"
        }
      ],
      "name": "MintToken",
      "type": "event"
    },
    {
      "anonymous": false,
      "inputs": [
        {
          "indexed": true,
          "internalType": "address",
          "name": "previousOwner",
          "type": "address"
        },
        {
          "indexed": true,
          "internalType": "address",
          "name": "newOwner",
          "type": "address"
        }
      ],
      "name": "OwnershipTransferred",
      "type": "event"
    },
    {
      "anonymous": false,
      "inputs": [
        {
          "indexed": true,
          "internalType": "address",
          "name": "operator",
          "type": "address"
        },
        {
          "indexed": true,
          "internalType": "address",
          "name": "from",
          "type": "address"
        },
        {
          "indexed": true,
          "internalType": "address",
          "name": "to",
          "type": "address"
        },
        {
          "indexed": false,
          "internalType": "uint256[]",
          "name": "ids",
          "type": "uint256[]"
        },
        {
          "indexed": false,
          "internalType": "uint256[]",
          "name": "values",
          "type": "uint256[]"
        }
      ],
      "name": "TransferBatch",
      "type": "event"
    },
    {
      "anonymous": false,
      "inputs": [
        {
          "indexed": true,
          "internalType": "address",
          "name": "operator",
          "type": "address"
        },
        {
          "indexed": true,
          "internalType": "address",
          "name": "from",
          "type": "address"
        },
        {
          "indexed": true,
          "internalType": "address",
          "name": "to",
          "type": "address"
        },
        {
          "indexed": false,
          "internalType": "uint256",
          "name": "id",
          "type": "uint256"
        },
        {
          "indexed": false,
          "internalType": "uint256",
          "name": "value",
          "type": "uint256"
        }
      ],
      "name": "TransferSingle",
      "type": "event"
    },
    {
      "anonymous": false,
      "inputs": [
        {
          "indexed": false,
          "internalType": "string",
          "name": "value",
          "type": "string"
        },
        {
          "indexed": true,
          "internalType": "uint256",
          "name": "id",
          "type": "uint256"
        }
      ],
      "name": "URI",
      "type": "event"
    },
    {
      "inputs": [
        {
          "internalType": "address",
          "name": "account",
          "type": "address"
        },
        {
          "internalType": "uint256",
          "name": "id",
          "type": "uint256"
        }
      ],
      "name": "balanceOf",
      "outputs": [
        {
          "internalType": "uint256",
          "name": "",
          "type": "uint256"
        }
      ],
      "stateMutability": "view",
      "type": "function",
      "constant": true
    },
    {
      "inputs": [
        {
          "internalType": "address[]",
          "name": "accounts",
          "type": "address[]"
        },
        {
          "internalType": "uint256[]",
          "name": "ids",
          "type": "uint256[]"
        }
      ],
      "name": "balanceOfBatch",
      "outputs": [
        {
          "internalType": "uint256[]",
          "name": "",
          "type": "uint256[]"
        }
      ],
      "stateMutability": "view",
      "type": "function",
      "constant": true
    },
    {
      "inputs": [
        {
          "internalType": "address",
          "name": "_to",
          "type": "address"
        },
        {
          "internalType": "uint256[]",
          "name": "_ids",
          "type": "uint256[]"
        },
        {
          "internalType": "uint256[]",
          "name": "_quantities",
          "type": "uint256[]"
        },
        {
          "internalType": "bytes",
          "name": "_data",
          "type": "bytes"
        }
      ],
      "name": "batchMint",
      "outputs": [],
      "stateMutability": "nonpayable",
      "type": "function"
    },
    {
      "inputs": [
        {
          "internalType": "address",
          "name": "_initialOwner",
          "type": "address"
        },
        {
          "internalType": "uint256",
          "name": "_id",
          "type": "uint256"
        },
        {
          "internalType": "uint256",
          "name": "_initialSupply",
          "type": "uint256"
        },
        {
          "internalType": "string",
          "name": "_uri",
          "type": "string"
        },
        {
          "internalType": "bytes",
          "name": "_data",
          "type": "bytes"
        }
      ],
      "name": "create",
      "outputs": [
        {
          "internalType": "uint256",
          "name": "",
          "type": "uint256"
        }
      ],
      "stateMutability": "nonpayable",
      "type": "function"
    },
    {
      "inputs": [
        {
          "internalType": "uint256",
          "name": "",
          "type": "uint256"
        }
      ],
      "name": "creators",
      "outputs": [
        {
          "internalType": "address",
          "name": "",
          "type": "address"
        }
      ],
      "stateMutability": "view",
      "type": "function",
      "constant": true
    },
    {
      "inputs": [
        {
          "internalType": "uint256",
          "name": "_id",
          "type": "uint256"
        }
      ],
      "name": "exists",
      "outputs": [
        {
          "internalType": "bool",
          "name": "",
          "type": "bool"
        }
      ],
      "stateMutability": "view",
      "type": "function",
      "constant": true
    },
    {
      "inputs": [
        {
          "internalType": "address",
          "name": "_owner",
          "type": "address"
        },
        {
          "internalType": "address",
          "name": "_operator",
          "type": "address"
        }
      ],
      "name": "isApprovedForAll",
      "outputs": [
        {
          "internalType": "bool",
          "name": "isOperator",
          "type": "bool"
        }
      ],
      "stateMutability": "view",
      "type": "function",
      "constant": true
    },
    {
      "inputs": [
        {
          "internalType": "address",
          "name": "_to",
          "type": "address"
        },
        {
          "internalType": "uint256",
          "name": "_id",
          "type": "uint256"
        },
        {
          "internalType": "uint256",
          "name": "_quantity",
          "type": "uint256"
        },
        {
          "internalType": "bytes",
          "name": "_data",
          "type": "bytes"
        }
      ],
      "name": "mint",
      "outputs": [],
      "stateMutability": "nonpayable",
      "type": "function"
    },
    {
      "inputs": [],
      "name": "name",
      "outputs": [
        {
          "internalType": "string",
          "name": "",
          "type": "string"
        }
      ],
      "stateMutability": "view",
      "type": "function",
      "constant": true
    },
    {
      "inputs": [],
      "name": "owner",
      "outputs": [
        {
          "internalType": "address",
          "name": "",
          "type": "address"
        }
      ],
      "stateMutability": "view",
      "type": "function",
      "constant": true
    },
    {
      "inputs": [],
      "name": "renounceOwnership",
      "outputs": [],
      "stateMutability": "nonpayable",
      "type": "function"
    },
    {
      "inputs": [
        {
          "internalType": "address",
          "name": "from",
          "type": "address"
        },
        {
          "internalType": "address",
          "name": "to",
          "type": "address"
        },
        {
          "internalType": "uint256[]",
          "name": "ids",
          "type": "uint256[]"
        },
        {
          "internalType": "uint256[]",
          "name": "amounts",
          "type": "uint256[]"
        },
        {
          "internalType": "bytes",
          "name": "data",
          "type": "bytes"
        }
      ],
      "name": "safeBatchTransferFrom",
      "outputs": [],
      "stateMutability": "nonpayable",
      "type": "function"
    },
    {
      "inputs": [
        {
          "internalType": "address",
          "name": "from",
          "type": "address"
        },
        {
          "internalType": "address",
          "name": "to",
          "type": "address"
        },
        {
          "internalType": "uint256",
          "name": "id",
          "type": "uint256"
        },
        {
          "internalType": "uint256",
          "name": "amount",
          "type": "uint256"
        },
        {
          "internalType": "bytes",
          "name": "data",
          "type": "bytes"
        }
      ],
      "name": "safeTransferFrom",
      "outputs": [],
      "stateMutability": "nonpayable",
      "type": "function"
    },
    {
      "inputs": [
        {
          "internalType": "address",
          "name": "operator",
          "type": "address"
        },
        {
          "internalType": "bool",
          "name": "approved",
          "type": "bool"
        }
      ],
      "name": "setApprovalForAll",
      "outputs": [],
      "stateMutability": "nonpayable",
      "type": "function"
    },
    {
      "inputs": [
        {
          "internalType": "address",
          "name": "_to",
          "type": "address"
        },
        {
          "internalType": "uint256[]",
          "name": "_ids",
          "type": "uint256[]"
        }
      ],
      "name": "setCreator",
      "outputs": [],
      "stateMutability": "nonpayable",
      "type": "function"
    },
    {
      "inputs": [
        {
          "internalType": "uint256",
          "name": "_tokenId",
          "type": "uint256"
        },
        {
          "internalType": "string",
          "name": "_newURI",
          "type": "string"
        }
      ],
      "name": "setCustomURI",
      "outputs": [],
      "stateMutability": "nonpayable",
      "type": "function"
    },
    {
      "inputs": [
        {
          "internalType": "string",
          "name": "_newURI",
          "type": "string"
        }
      ],
      "name": "setURI",
      "outputs": [],
      "stateMutability": "nonpayable",
      "type": "function"
    },
    {
      "inputs": [
        {
          "internalType": "bytes4",
          "name": "interfaceId",
          "type": "bytes4"
        }
      ],
      "name": "supportsInterface",
      "outputs": [
        {
          "internalType": "bool",
          "name": "",
          "type": "bool"
        }
      ],
      "stateMutability": "view",
      "type": "function",
      "constant": true
    },
    {
      "inputs": [],
      "name": "symbol",
      "outputs": [
        {
          "internalType": "string",
          "name": "",
          "type": "string"
        }
      ],
      "stateMutability": "view",
      "type": "function",
      "constant": true
    },
    {
      "inputs": [
        {
          "internalType": "uint256",
          "name": "",
          "type": "uint256"
        }
      ],
      "name": "tokenSupply",
      "outputs": [
        {
          "internalType": "uint256",
          "name": "",
          "type": "uint256"
        }
      ],
      "stateMutability": "view",
      "type": "function",
      "constant": true
    },
    {
      "inputs": [
        {
          "internalType": "uint256",
          "name": "_id",
          "type": "uint256"
        }
      ],
      "name": "totalSupply",
      "outputs": [
        {
          "internalType": "uint256",
          "name": "",
          "type": "uint256"
        }
      ],
      "stateMutability": "view",
      "type": "function",
      "constant": true
    },
    {
      "inputs": [
        {
          "internalType": "address",
          "name": "newOwner",
          "type": "address"
        }
      ],
      "name": "transferOwnership",
      "outputs": [],
      "stateMutability": "nonpayable",
      "type": "function"
    },
    {
      "inputs": [
        {
          "internalType": "uint256",
          "name": "_id",
          "type": "uint256"
        }
      ],
      "name": "uri",
      "outputs": [
        {
          "internalType": "string",
          "name": "",
          "type": "string"
        }
      ],
      "stateMutability": "view",
      "type": "function",
      "constant": true
    },
    {
      "inputs": [],
      "name": "contractURI",
      "outputs": [
        {
          "internalType": "string",
          "name": "",
          "type": "string"
        }
      ],
      "stateMutability": "pure",
      "type": "function",
      "constant": true
    },
    {
      "inputs": [
        {
          "internalType": "address",
          "name": "_to",
          "type": "address"
        },
        {
          "internalType": "uint256",
          "name": "newTokenId",
          "type": "uint256"
        },
        {
          "internalType": "uint256",
          "name": "_quantity",
          "type": "uint256"
        },
        {
          "internalType": "bytes",
          "name": "_data",
          "type": "bytes"
        },
        {
          "internalType": "uint256",
          "name": "product_id",
          "type": "uint256"
        }
      ],
      "name": "mintTo",
      "outputs": [],
      "stateMutability": "nonpayable",
      "type": "function"
    }
  ],
  "bytecode": "0x60806040523480156200001157600080fd5b50604051620029a4380380620029a4833981016040819052620000349162000207565b6040518060400160405280601981526020017f4f70656e5365612050726f64756374204163636573736f727900000000000000815250604051806040016040528060038152602001624f504160e81b8152506040518060600160405280602681526020016200297e602691398381620000ad8162000148565b50600380546001600160a01b0319163390811790915560405181906000907f8be0079c531659141344cd1fd0a4f28419497f9722a3daafe3b4186f6b6457e0908290a35083516200010690600890602087019062000161565b5082516200011c90600990602086019062000161565b50600480546001600160a01b0319166001600160a01b0392909216919091179055506200027492505050565b80516200015d90600290602084019062000161565b5050565b8280546200016f9062000237565b90600052602060002090601f016020900481019282620001935760008555620001de565b82601f10620001ae57805160ff1916838001178555620001de565b82800160010185558215620001de579182015b82811115620001de578251825591602001919060010190620001c1565b50620001ec929150620001f0565b5090565b5b80821115620001ec5760008155600101620001f1565b60006020828403121562000219578081fd5b81516001600160a01b038116811462000230578182fd5b9392505050565b600181811c908216806200024c57607f821691505b602082108114156200026e57634e487b7160e01b600052602260045260246000fd5b50919050565b6126fa80620002846000396000f3fe608060405234801561001057600080fd5b50600436106101325760003560e01c8062fdd58e1461013757806301ffc9a71461015d57806302fe53051461018057806306fdde03146101955780630e89341c146101aa5780632693ebf2146101bd5780632eb2c2d6146101dd57806336a100d5146101f05780633adf80b4146102035780634e1273f4146102165780634f558e7914610236578063715018a614610249578063731133e9146102515780638da5cb5b1461026457806395d89b4114610279578063a22cb46514610281578063b48ab8b614610294578063bd85b039146102a7578063c1f715bf146102c7578063cd53d08e146102da578063d2a6b51a14610303578063e8a3d48514610316578063e985e9c51461031e578063f242432a14610331578063f2fde38b14610344575b600080fd5b61014a610145366004611e70565b610357565b6040519081526020015b60405180910390f35b61017061016b366004612070565b6103f1565b6040519015158152602001610154565b61019361018e3660046120c4565b610445565b005b61019d610480565b60405161015491906122c5565b61019d6101b83660046120f6565b61050e565b61014a6101cb3660046120f6565b60066020526000908152604090205481565b6101936101eb366004611c4d565b6106cd565b61014a6101fe366004611f57565b610953565b61019361021136600461210e565b610a76565b610229610224366004611fae565b610b0b565b6040516101549190612284565b6101706102443660046120f6565b610c6c565b610193610c77565b61019361025f366004611e9b565b610cf0565b61026c610d66565b60405161015491906121cd565b61019d610d76565b61019361028f366004611e3f565b610d83565b6101936102a2366004611da9565b610e67565b61014a6102b53660046120f6565b60009081526006602052604090205490565b6101936102d5366004611eef565b610fae565b61026c6102e83660046120f6565b6005602052600090815260409020546001600160a01b031681565b610193610311366004611d5c565b611029565b61019d6110ee565b61017061032c366004611c15565b61110e565b61019361033f366004611cf6565b6111e0565b610193610352366004611bf9565b611390565b60006001600160a01b0383166103c85760405162461bcd60e51b815260206004820152602b60248201527f455243313135353a2062616c616e636520717565727920666f7220746865207a60448201526a65726f206164647265737360a81b60648201526084015b60405180910390fd5b506000818152602081815260408083206001600160a01b03861684529091529020545b92915050565b60006001600160e01b03198216636cdb3d1360e11b148061042257506001600160e01b031982166303a24d0760e21b145b8061043d57506301ffc9a760e01b6001600160e01b03198316145b90505b919050565b3361044e610d66565b6001600160a01b0316146104745760405162461bcd60e51b81526004016103bf906123af565b61047d81611480565b50565b6008805461048d90612510565b80601f01602080910402602001604051908101604052809291908181526020018280546104b990612510565b80156105065780601f106104db57610100808354040283529160200191610506565b820191906000526020600020905b8154815290600101906020018083116104e957829003601f168201915b505050505081565b606061051982611497565b6105745760405162461bcd60e51b815260206004820152602660248201527f455243313135355472616461626c65237572693a204e4f4e4558495354454e546044820152652faa27a5a2a760d11b60648201526084016103bf565b6000828152600760205260408120805461058d90612510565b80601f01602080910402602001604051908101604052809291908181526020018280546105b990612510565b80156106065780601f106105db57610100808354040283529160200191610606565b820191906000526020600020905b8154815290600101906020018083116105e957829003601f168201915b505050505090506000815111156106b6576000838152600760205260409020805461063090612510565b80601f016020809104026020016040519081016040528092919081815260200182805461065c90612510565b80156106a95780601f1061067e576101008083540402835291602001916106a9565b820191906000526020600020905b81548152906001019060200180831161068c57829003601f168201915b5050505050915050610440565b6106bf836114b4565b915050610440565b50919050565b81518351146106ee5760405162461bcd60e51b81526004016103bf906123e4565b6001600160a01b0384166107145760405162461bcd60e51b81526004016103bf90612320565b6001600160a01b0385163314806107305750610730853361032c565b6107975760405162461bcd60e51b815260206004820152603260248201527f455243313135353a207472616e736665722063616c6c6572206973206e6f74206044820152711bdddb995c881b9bdc88185c1c1c9bdd995960721b60648201526084016103bf565b3360005b84518110156108e55760008582815181106107c657634e487b7160e01b600052603260045260246000fd5b6020026020010151905060008583815181106107f257634e487b7160e01b600052603260045260246000fd5b602090810291909101810151600084815280835260408082206001600160a01b038e1683529093529190912054909150818110156108425760405162461bcd60e51b81526004016103bf90612365565b61084c82826124f9565b60008085815260200190815260200160002060008c6001600160a01b03166001600160a01b03168152602001908152602001600020819055508160008085815260200190815260200160002060008b6001600160a01b03166001600160a01b0316815260200190815260200160002060008282546108ca91906124e1565b92505081905550505050806108de90612571565b905061079b565b50846001600160a01b0316866001600160a01b0316826001600160a01b03167f4a39dc06d4c0dbc64b70af90fd698a233a518aa5d07e595d983b8c0526c8f7fb8787604051610935929190612297565b60405180910390a461094b818787878787611548565b505050505050565b60003361095e610d66565b6001600160a01b0316146109845760405162461bcd60e51b81526004016103bf906123af565b61098d85611497565b156109d55760405162461bcd60e51b8152602060048201526018602482015277746f6b656e205f696420616c72656164792065786973747360401b60448201526064016103bf565b600085815260056020526040902080546001600160a01b03191633179055825115610a535760008581526007602090815260409091208451610a1992860190611a7e565b50847f6bb7ff708619ba0610cba295a58592e0451dee2622938c8755667688daf3529b84604051610a4a91906122c5565b60405180910390a25b610a5f868686856116b3565b505050600082815260066020526040902055919050565b60008281526005602052604090205482906001600160a01b03163314610aae5760405162461bcd60e51b81526004016103bf9061246d565b60008381526007602090815260409091208351610acd92850190611a7e565b50827f6bb7ff708619ba0610cba295a58592e0451dee2622938c8755667688daf3529b83604051610afe91906122c5565b60405180910390a2505050565b60608151835114610b705760405162461bcd60e51b815260206004820152602960248201527f455243313135353a206163636f756e747320616e6420696473206c656e677468604482015268040dad2e6dac2e8c6d60bb1b60648201526084016103bf565b600083516001600160401b03811115610b9957634e487b7160e01b600052604160045260246000fd5b604051908082528060200260200182016040528015610bc2578160200160208202803683370190505b50905060005b8451811015610c6457610c29858281518110610bf457634e487b7160e01b600052603260045260246000fd5b6020026020010151858381518110610c1c57634e487b7160e01b600052603260045260246000fd5b6020026020010151610357565b828281518110610c4957634e487b7160e01b600052603260045260246000fd5b6020908102919091010152610c5d81612571565b9050610bc8565b509392505050565b600061043d82611497565b33610c80610d66565b6001600160a01b031614610ca65760405162461bcd60e51b81526004016103bf906123af565b6003546040516000916001600160a01b0316907f8be0079c531659141344cd1fd0a4f28419497f9722a3daafe3b4186f6b6457e0908390a3600380546001600160a01b0319169055565b60008381526005602052604090205483906001600160a01b03163314610d285760405162461bcd60e51b81526004016103bf9061246d565b610d34858585856116b3565b600084815260066020526040902054610d4d908461177a565b6000948552600660205260409094209390935550505050565b6003546001600160a01b03165b90565b6009805461048d90612510565b336001600160a01b0383161415610dee5760405162461bcd60e51b815260206004820152602960248201527f455243313135353a2073657474696e6720617070726f76616c20737461747573604482015268103337b91039b2b63360b91b60648201526084016103bf565b3360008181526001602090815260408083206001600160a01b0387168085529252909120805460ff1916841515179055906001600160a01b03167f17307eab39ab6107e8899845ad3d59bd9653f200f220920489ca2b5937696c3183604051610e5b911515815260200190565b60405180910390a35050565b60005b8351811015610f9b576000848281518110610e9557634e487b7160e01b600052603260045260246000fd5b602090810291909101810151600081815260059092526040909120549091506001600160a01b03163314610f235760405162461bcd60e51b815260206004820152602f60248201527f455243313135355472616461626c652362617463684d696e743a204f4e4c595f60448201526e10d491505513d497d0531313d5d151608a1b60648201526084016103bf565b6000848381518110610f4557634e487b7160e01b600052603260045260246000fd5b60200260200101519050610f7581600660008581526020019081526020016000205461177a90919063ffffffff16565b600092835260066020526040909220919091555080610f9381612571565b915050610e6a565b50610fa88484848461178d565b50505050565b33610fb7610d66565b6001600160a01b031614610fdd5760405162461bcd60e51b81526004016103bf906123af565b610fe985858585610cf0565b60408051858152602081018390527f0a8baf1a40d5e4a8bfdc9ab231353378d5a3e45cee41d5b5455b4e0dbefa1991910160405180910390a15050505050565b6001600160a01b0382166110945760405162461bcd60e51b815260206004820152602c60248201527f455243313135355472616461626c652373657443726561746f723a20494e564160448201526b2624a22fa0a2222922a9a99760a11b60648201526084016103bf565b60005b81518110156110e95760008282815181106110c257634e487b7160e01b600052603260045260246000fd5b602002602001015190506110d684826118f4565b50806110e181612571565b915050611097565b505050565b606060405180606001604052806039815260200161268c60399139905090565b6004805460405163c455279160e01b81526000926001600160a01b0392831692851691839163c455279191611145918991016121cd565b60206040518083038186803b15801561115d57600080fd5b505afa158015611171573d6000803e3d6000fd5b505050506040513d601f19601f8201168201806040525081019061119591906120a8565b6001600160a01b031614156111ae5760019150506103eb565b6001600160a01b0380851660009081526001602090815260408083209387168352929052205460ff165b949350505050565b6001600160a01b0384166112065760405162461bcd60e51b81526004016103bf90612320565b6001600160a01b0385163314806112225750611222853361032c565b6112805760405162461bcd60e51b815260206004820152602960248201527f455243313135353a2063616c6c6572206973206e6f74206f776e6572206e6f7260448201526808185c1c1c9bdd995960ba1b60648201526084016103bf565b336112a08187876112908861195b565b6112998861195b565b5050505050565b6000848152602081815260408083206001600160a01b038a168452909152902054838110156112e15760405162461bcd60e51b81526004016103bf90612365565b6112eb84826124f9565b6000868152602081815260408083206001600160a01b038c811685529252808320939093558816815290812080548692906113279084906124e1565b909155505060408051868152602081018690526001600160a01b03808916928a821692918616917fc3d58168c5ae7397731d063d5bbf3d657854427343f4c083240f7aacaa2d0f62910160405180910390a46113878288888888886119b4565b50505050505050565b33611399610d66565b6001600160a01b0316146113bf5760405162461bcd60e51b81526004016103bf906123af565b6001600160a01b0381166114245760405162461bcd60e51b815260206004820152602660248201527f4f776e61626c653a206e6577206f776e657220697320746865207a65726f206160448201526564647265737360d01b60648201526084016103bf565b6003546040516001600160a01b038084169216907f8be0079c531659141344cd1fd0a4f28419497f9722a3daafe3b4186f6b6457e090600090a3600380546001600160a01b0319166001600160a01b0392909216919091179055565b8051611493906002906020840190611a7e565b5050565b6000908152600560205260409020546001600160a01b0316151590565b6060600280546114c390612510565b80601f01602080910402602001604051908101604052809291908181526020018280546114ef90612510565b801561153c5780601f106115115761010080835404028352916020019161153c565b820191906000526020600020905b81548152906001019060200180831161151f57829003601f168201915b50505050509050919050565b6001600160a01b0384163b1561094b5760405163bc197c8160e01b81526001600160a01b0385169063bc197c819061158c90899089908890889088906004016121e1565b602060405180830381600087803b1580156115a657600080fd5b505af19250505080156115d6575060408051601f3d908101601f191682019092526115d39181019061208c565b60015b611683576115e26125b8565b806308c379a0141561161c57506115f76125cf565b80611602575061161e565b8060405162461bcd60e51b81526004016103bf91906122c5565b505b60405162461bcd60e51b815260206004820152603460248201527f455243313135353a207472616e7366657220746f206e6f6e20455243313135356044820152732932b1b2b4bb32b91034b6b83632b6b2b73a32b960611b60648201526084016103bf565b6001600160e01b0319811663bc197c8160e01b146113875760405162461bcd60e51b81526004016103bf906122d8565b6001600160a01b0384166116d95760405162461bcd60e51b81526004016103bf9061242c565b336116ea816000876112908861195b565b6000848152602081815260408083206001600160a01b03891684529091528120805485929061171a9084906124e1565b909155505060408051858152602081018590526001600160a01b0380881692600092918516917fc3d58168c5ae7397731d063d5bbf3d657854427343f4c083240f7aacaa2d0f62910160405180910390a4611299816000878787876119b4565b600061178682846124e1565b9392505050565b6001600160a01b0384166117b35760405162461bcd60e51b81526004016103bf9061242c565b81518351146117d45760405162461bcd60e51b81526004016103bf906123e4565b3360005b845181101561188c5783818151811061180157634e487b7160e01b600052603260045260246000fd5b602002602001015160008087848151811061182c57634e487b7160e01b600052603260045260246000fd5b602002602001015181526020019081526020016000206000886001600160a01b03166001600160a01b03168152602001908152602001600020600082825461187491906124e1565b9091555081905061188481612571565b9150506117d8565b50846001600160a01b031660006001600160a01b0316826001600160a01b03167f4a39dc06d4c0dbc64b70af90fd698a233a518aa5d07e595d983b8c0526c8f7fb87876040516118dd929190612297565b60405180910390a461129981600087878787611548565b60008181526005602052604090205481906001600160a01b0316331461192c5760405162461bcd60e51b81526004016103bf9061246d565b50600090815260056020526040902080546001600160a01b0319166001600160a01b0392909216919091179055565b604080516001808252818301909252606091600091906020808301908036833701905050905082816000815181106119a357634e487b7160e01b600052603260045260246000fd5b602090810291909101015292915050565b6001600160a01b0384163b1561094b5760405163f23a6e6160e01b81526001600160a01b0385169063f23a6e61906119f8908990899088908890889060040161223f565b602060405180830381600087803b158015611a1257600080fd5b505af1925050508015611a42575060408051601f3d908101601f19168201909252611a3f9181019061208c565b60015b611a4e576115e26125b8565b6001600160e01b0319811663f23a6e6160e01b146113875760405162461bcd60e51b81526004016103bf906122d8565b828054611a8a90612510565b90600052602060002090601f016020900481019282611aac5760008555611af2565b82601f10611ac557805160ff1916838001178555611af2565b82800160010185558215611af2579182015b82811115611af2578251825591602001919060010190611ad7565b50611afe929150611b02565b5090565b5b80821115611afe5760008155600101611b03565b600082601f830112611b27578081fd5b81356020611b34826124be565b604051611b418282612545565b8381528281019150858301600585901b87018401881015611b60578586fd5b855b85811015611b7e57813584529284019290840190600101611b62565b5090979650505050505050565b600082601f830112611b9b578081fd5b81356001600160401b03811115611bb457611bb46125a2565b604051611bcb601f8301601f191660200182612545565b818152846020838601011115611bdf578283fd5b816020850160208301379081016020019190915292915050565b600060208284031215611c0a578081fd5b813561178681612660565b60008060408385031215611c27578081fd5b8235611c3281612660565b91506020830135611c4281612660565b809150509250929050565b600080600080600060a08688031215611c64578081fd5b8535611c6f81612660565b94506020860135611c7f81612660565b935060408601356001600160401b0380821115611c9a578283fd5b611ca689838a01611b17565b94506060880135915080821115611cbb578283fd5b611cc789838a01611b17565b93506080880135915080821115611cdc578283fd5b50611ce988828901611b8b565b9150509295509295909350565b600080600080600060a08688031215611d0d578081fd5b8535611d1881612660565b94506020860135611d2881612660565b9350604086013592506060860135915060808601356001600160401b03811115611d50578182fd5b611ce988828901611b8b565b60008060408385031215611d6e578182fd5b8235611d7981612660565b915060208301356001600160401b03811115611d93578182fd5b611d9f85828601611b17565b9150509250929050565b60008060008060808587031215611dbe578384fd5b8435611dc981612660565b935060208501356001600160401b0380821115611de4578485fd5b611df088838901611b17565b94506040870135915080821115611e05578384fd5b611e1188838901611b17565b93506060870135915080821115611e26578283fd5b50611e3387828801611b8b565b91505092959194509250565b60008060408385031215611e51578182fd5b8235611e5c81612660565b915060208301358015158114611c42578182fd5b60008060408385031215611e82578182fd5b8235611e8d81612660565b946020939093013593505050565b60008060008060808587031215611eb0578182fd5b8435611ebb81612660565b9350602085013592506040850135915060608501356001600160401b03811115611ee3578182fd5b611e3387828801611b8b565b600080600080600060a08688031215611f06578283fd5b8535611f1181612660565b9450602086013593506040860135925060608601356001600160401b03811115611f39578182fd5b611f4588828901611b8b565b95989497509295608001359392505050565b600080600080600060a08688031215611f6e578283fd5b8535611f7981612660565b9450602086013593506040860135925060608601356001600160401b0380821115611fa2578283fd5b611cc789838a01611b8b565b60008060408385031215611fc0578182fd5b82356001600160401b0380821115611fd6578384fd5b818501915085601f830112611fe9578384fd5b81356020611ff6826124be565b6040516120038282612545565b8381528281019150858301600585901b870184018b1015612022578889fd5b8896505b8487101561204d57803561203981612660565b835260019690960195918301918301612026565b5096505086013592505080821115612063578283fd5b50611d9f85828601611b17565b600060208284031215612081578081fd5b813561178681612675565b60006020828403121561209d578081fd5b815161178681612675565b6000602082840312156120b9578081fd5b815161178681612660565b6000602082840312156120d5578081fd5b81356001600160401b038111156120ea578182fd5b6111d884828501611b8b565b600060208284031215612107578081fd5b5035919050565b60008060408385031215612120578182fd5b8235915060208301356001600160401b0381111561213c578182fd5b611d9f85828601611b8b565b6000815180845260208085019450808401835b838110156121775781518752958201959082019060010161215b565b509495945050505050565b60008151808452815b818110156121a75760208185018101518683018201520161218b565b818111156121b85782602083870101525b50601f01601f19169290920160200192915050565b6001600160a01b0391909116815260200190565b6001600160a01b0386811682528516602082015260a06040820181905260009061220d90830186612148565b828103606084015261221f8186612148565b905082810360808401526122338185612182565b98975050505050505050565b6001600160a01b03868116825285166020820152604081018490526060810183905260a06080820181905260009061227990830184612182565b979650505050505050565b6000602082526117866020830184612148565b6000604082526122aa6040830185612148565b82810360208401526122bc8185612148565b95945050505050565b6000602082526117866020830184612182565b60208082526028908201527f455243313135353a204552433131353552656365697665722072656a656374656040820152676420746f6b656e7360c01b606082015260800190565b60208082526025908201527f455243313135353a207472616e7366657220746f20746865207a65726f206164604082015264647265737360d81b606082015260800190565b6020808252602a908201527f455243313135353a20696e73756666696369656e742062616c616e636520666f60408201526939103a3930b739b332b960b11b606082015260800190565b6020808252818101527f4f776e61626c653a2063616c6c6572206973206e6f7420746865206f776e6572604082015260600190565b60208082526028908201527f455243313135353a2069647320616e6420616d6f756e7473206c656e677468206040820152670dad2e6dac2e8c6d60c31b606082015260800190565b60208082526021908201527f455243313135353a206d696e7420746f20746865207a65726f206164647265736040820152607360f81b606082015260800190565b60208082526031908201527f455243313135355472616461626c652363726561746f724f6e6c793a204f4e4c6040820152701657d0d491505513d497d0531313d5d151607a1b606082015260800190565b60006001600160401b038211156124d7576124d76125a2565b5060051b60200190565b600082198211156124f4576124f461258c565b500190565b60008282101561250b5761250b61258c565b500390565b600181811c9082168061252457607f821691505b602082108114156106c757634e487b7160e01b600052602260045260246000fd5b601f8201601f191681016001600160401b038111828210171561256a5761256a6125a2565b6040525050565b60006000198214156125855761258561258c565b5060010190565b634e487b7160e01b600052601160045260246000fd5b634e487b7160e01b600052604160045260246000fd5b600060033d1115610d7357600481823e5160e01c90565b600060443d10156125df57610d73565b6040516003193d81016004833e81513d6001600160401b038160248401118184111715612610575050505050610d73565b828501915081518181111561262a57505050505050610d73565b843d870101602082850101111561264657505050505050610d73565b61265560208286010187612545565b509094505050505090565b6001600160a01b038116811461047d57600080fd5b6001600160e01b03198116811461047d57600080fdfe68747470733a2f2f6372656174757265732d6170692e6f70656e7365612e696f2f636f6e74726163742f6f70656e7365612d65726331313535a26469706673582212205413f1f4170f3af9759e25dbf910350a4f3a34f13e40a54a430196494c79ed8964736f6c63430008030033687474703a2f2f6c6f63616c686f73743a383038302f6170692f657263313135352f7b69647d",
  "immutableReferences": {},
  "source": "// SPDX-License-Identifier: MIT\n\npragma solidity ^0.8.0;\n\nimport \"./ERC1155Tradable.sol\";\n\n/**\n * @title CreatureAccessory\n * CreatureAccessory - a contract for Creature Accessory semi-fungible tokens.\n */\ncontract ProductAccessory is ERC1155Tradable {\n\n    event MintToken(uint256 token_id, uint256 product_id);\n\n    constructor(address _proxyRegistryAddress)\n        ERC1155Tradable(\n            \"OpenSea Product Accessory\",\n            \"OPA\",  \n            \"http://localhost:8080/api/erc1155/{id}\",\n            _proxyRegistryAddress\n        ) {}\n\n    function contractURI() public pure returns (string memory) {\n        return \"https://creatures-api.opensea.io/contract/opensea-erc1155\";\n    }\n\n    function mintTo(\n        address _to,\n        uint256 newTokenId,\n        uint256 _quantity,\n        bytes memory _data,\n        uint256 product_id\n    ) public onlyOwner {\n        mint(_to, newTokenId, _quantity, _data);\n        emit MintToken(newTokenId, product_id);\n    }\n}\n",
  "sourcePath": "/Volumes/WORK/MyWork/NFTmarket/proj/NFTMarket/contract/contracts/ProductAccessory.sol",
  "compiler": {
    "name": "solc",
    "version": "0.8.3+commit.8d00100c.Emscripten.clang"
  },
  "schemaVersion": "3.3.4",
  "updatedAt": "2021-04-07T18:16:19.723Z",
  "networkType": "ethereum",
  "devdoc": {
    "kind": "dev",
    "methods": {
      "balanceOf(address,uint256)": {
        "details": "See {IERC1155-balanceOf}. Requirements: - `account` cannot be the zero address."
      },
      "balanceOfBatch(address[],uint256[])": {
        "details": "See {IERC1155-balanceOfBatch}. Requirements: - `accounts` and `ids` must have the same length."
      },
      "batchMint(address,uint256[],uint256[],bytes)": {
        "details": "Mint tokens for each id in _ids",
        "params": {
          "_data": "Data to pass if receiver is contract",
          "_ids": "Array of ids to mint",
          "_quantities": "Array of amounts of tokens to mint per id",
          "_to": "The address to mint tokens to"
        }
      },
      "create(address,uint256,uint256,string,bytes)": {
        "details": "Creates a new token type and assigns _initialSupply to an address NOTE: remove onlyOwner if you want third parties to create new tokens on       your contract (which may change your IDs) NOTE: The token id must be passed. This allows lazy creation of tokens or       creating NFTs by setting the id's high bits with the method       described in ERC1155 or to use ids representing values other than       successive small integers. If you wish to create ids as successive       small integers you can either subclass this class to count onchain       or maintain the offchain cache of identifiers recommended in       ERC1155 and calculate successive ids from that.",
        "params": {
          "_data": "Data to pass if receiver is contract",
          "_id": "The id of the token to create (must not currenty exist).",
          "_initialOwner": "address of the first owner of the token",
          "_initialSupply": "amount to supply the first owner",
          "_uri": "Optional URI for this token type"
        },
        "returns": {
          "_0": "The newly created token ID"
        }
      },
      "mint(address,uint256,uint256,bytes)": {
        "details": "Mints some amount of tokens to an address",
        "params": {
          "_data": "Data to pass if receiver is contract",
          "_id": "Token ID to mint",
          "_quantity": "Amount of tokens to mint",
          "_to": "Address of the future owner of the token"
        }
      },
      "owner()": {
        "details": "Returns the address of the current owner."
      },
      "renounceOwnership()": {
        "details": "Leaves the contract without owner. It will not be possible to call `onlyOwner` functions anymore. Can only be called by the current owner. NOTE: Renouncing ownership will leave the contract without an owner, thereby removing any functionality that is only available to the owner."
      },
      "safeBatchTransferFrom(address,address,uint256[],uint256[],bytes)": {
        "details": "See {IERC1155-safeBatchTransferFrom}."
      },
      "safeTransferFrom(address,address,uint256,uint256,bytes)": {
        "details": "See {IERC1155-safeTransferFrom}."
      },
      "setApprovalForAll(address,bool)": {
        "details": "See {IERC1155-setApprovalForAll}."
      },
      "setCreator(address,uint256[])": {
        "details": "Change the creator address for given tokens",
        "params": {
          "_ids": "Array of Token IDs to change creator",
          "_to": "Address of the new creator"
        }
      },
      "setCustomURI(uint256,string)": {
        "details": "Will update the base URI for the token",
        "params": {
          "_newURI": "New URI for the token.",
          "_tokenId": "The token to upddate. msg.sender must be its creator."
        }
      },
      "setURI(string)": {
        "details": "Sets a new URI for all token types, by relying on the token type ID substitution mechanism https://eips.ethereum.org/EIPS/eip-1155#metadata[defined in the EIP].",
        "params": {
          "_newURI": "New URI for all tokens"
        }
      },
      "supportsInterface(bytes4)": {
        "details": "See {IERC165-supportsInterface}."
      },
      "totalSupply(uint256)": {
        "details": "Returns the total quantity for a token ID",
        "params": {
          "_id": "uint256 ID of the token to query"
        },
        "returns": {
          "_0": "amount of token in existence"
        }
      },
      "transferOwnership(address)": {
        "details": "Transfers ownership of the contract to a new account (`newOwner`). Can only be called by the current owner."
      }
    },
    "title": "CreatureAccessory CreatureAccessory - a contract for Creature Accessory semi-fungible tokens.",
    "version": 1
  },
  "userdoc": {
    "kind": "user",
    "methods": {
      "isApprovedForAll(address,address)": {
        "notice": "Override isApprovedForAll to whitelist user's OpenSea proxy accounts to enable gas-free listings."
      }
    },
    "version": 1
  }
}