{
  "contractName": "Product",
  "abi": [
    {
      "constant": false,
      "inputs": [
        {
          "internalType": "address",
          "name": "_proxyRegistryAddress",
          "type": "address"
        }
      ],
      "stateMutability": "nonpayable",
      "type": "constructor"
    },
    {
      "anonymous": false,
      "inputs": [
        {
          "indexed": true,
          "internalType": "address",
          "name": "owner",
          "type": "address"
        },
        {
          "indexed": true,
          "internalType": "address",
          "name": "approved",
          "type": "address"
        },
        {
          "indexed": true,
          "internalType": "uint256",
          "name": "tokenId",
          "type": "uint256"
        }
      ],
      "name": "Approval",
      "type": "event"
    },
    {
      "anonymous": false,
      "inputs": [
        {
          "indexed": true,
          "internalType": "address",
          "name": "owner",
          "type": "address"
        },
        {
          "indexed": true,
          "internalType": "address",
          "name": "operator",
          "type": "address"
        },
        {
          "indexed": false,
          "internalType": "bool",
          "name": "approved",
          "type": "bool"
        }
      ],
      "name": "ApprovalForAll",
      "type": "event"
    },
    {
      "anonymous": false,
      "inputs": [
        {
          "indexed": false,
          "internalType": "uint256",
          "name": "token_id",
          "type": "uint256"
        },
        {
          "indexed": false,
          "internalType": "uint256",
          "name": "product_id",
          "type": "uint256"
        }
      ],
      "name": "MintToken",
      "type": "event"
    },
    {
      "anonymous": false,
      "inputs": [
        {
          "indexed": true,
          "internalType": "address",
          "name": "previousOwner",
          "type": "address"
        },
        {
          "indexed": true,
          "internalType": "address",
          "name": "newOwner",
          "type": "address"
        }
      ],
      "name": "OwnershipTransferred",
      "type": "event"
    },
    {
      "anonymous": false,
      "inputs": [
        {
          "indexed": true,
          "internalType": "address",
          "name": "from",
          "type": "address"
        },
        {
          "indexed": true,
          "internalType": "address",
          "name": "to",
          "type": "address"
        },
        {
          "indexed": true,
          "internalType": "uint256",
          "name": "tokenId",
          "type": "uint256"
        }
      ],
      "name": "Transfer",
      "type": "event"
    },
    {
      "inputs": [
        {
          "internalType": "address",
          "name": "to",
          "type": "address"
        },
        {
          "internalType": "uint256",
          "name": "tokenId",
          "type": "uint256"
        }
      ],
      "name": "approve",
      "outputs": [],
      "stateMutability": "nonpayable",
      "type": "function"
    },
    {
      "inputs": [
        {
          "internalType": "address",
          "name": "owner",
          "type": "address"
        }
      ],
      "name": "balanceOf",
      "outputs": [
        {
          "internalType": "uint256",
          "name": "",
          "type": "uint256"
        }
      ],
      "stateMutability": "view",
      "type": "function",
      "constant": true
    },
    {
      "inputs": [
        {
          "internalType": "uint256",
          "name": "tokenId",
          "type": "uint256"
        }
      ],
      "name": "getApproved",
      "outputs": [
        {
          "internalType": "address",
          "name": "",
          "type": "address"
        }
      ],
      "stateMutability": "view",
      "type": "function",
      "constant": true
    },
    {
      "inputs": [
        {
          "internalType": "address",
          "name": "owner",
          "type": "address"
        },
        {
          "internalType": "address",
          "name": "operator",
          "type": "address"
        }
      ],
      "name": "isApprovedForAll",
      "outputs": [
        {
          "internalType": "bool",
          "name": "",
          "type": "bool"
        }
      ],
      "stateMutability": "view",
      "type": "function",
      "constant": true
    },
    {
      "inputs": [],
      "name": "name",
      "outputs": [
        {
          "internalType": "string",
          "name": "",
          "type": "string"
        }
      ],
      "stateMutability": "view",
      "type": "function",
      "constant": true
    },
    {
      "inputs": [],
      "name": "owner",
      "outputs": [
        {
          "internalType": "address",
          "name": "",
          "type": "address"
        }
      ],
      "stateMutability": "view",
      "type": "function",
      "constant": true
    },
    {
      "inputs": [
        {
          "internalType": "uint256",
          "name": "tokenId",
          "type": "uint256"
        }
      ],
      "name": "ownerOf",
      "outputs": [
        {
          "internalType": "address",
          "name": "",
          "type": "address"
        }
      ],
      "stateMutability": "view",
      "type": "function",
      "constant": true
    },
    {
      "inputs": [],
      "name": "renounceOwnership",
      "outputs": [],
      "stateMutability": "nonpayable",
      "type": "function"
    },
    {
      "inputs": [
        {
          "internalType": "address",
          "name": "from",
          "type": "address"
        },
        {
          "internalType": "address",
          "name": "to",
          "type": "address"
        },
        {
          "internalType": "uint256",
          "name": "tokenId",
          "type": "uint256"
        }
      ],
      "name": "safeTransferFrom",
      "outputs": [],
      "stateMutability": "nonpayable",
      "type": "function"
    },
    {
      "inputs": [
        {
          "internalType": "address",
          "name": "from",
          "type": "address"
        },
        {
          "internalType": "address",
          "name": "to",
          "type": "address"
        },
        {
          "internalType": "uint256",
          "name": "tokenId",
          "type": "uint256"
        },
        {
          "internalType": "bytes",
          "name": "_data",
          "type": "bytes"
        }
      ],
      "name": "safeTransferFrom",
      "outputs": [],
      "stateMutability": "nonpayable",
      "type": "function"
    },
    {
      "inputs": [
        {
          "internalType": "address",
          "name": "operator",
          "type": "address"
        },
        {
          "internalType": "bool",
          "name": "approved",
          "type": "bool"
        }
      ],
      "name": "setApprovalForAll",
      "outputs": [],
      "stateMutability": "nonpayable",
      "type": "function"
    },
    {
      "inputs": [
        {
          "internalType": "bytes4",
          "name": "interfaceId",
          "type": "bytes4"
        }
      ],
      "name": "supportsInterface",
      "outputs": [
        {
          "internalType": "bool",
          "name": "",
          "type": "bool"
        }
      ],
      "stateMutability": "view",
      "type": "function",
      "constant": true
    },
    {
      "inputs": [],
      "name": "symbol",
      "outputs": [
        {
          "internalType": "string",
          "name": "",
          "type": "string"
        }
      ],
      "stateMutability": "view",
      "type": "function",
      "constant": true
    },
    {
      "inputs": [
        {
          "internalType": "uint256",
          "name": "index",
          "type": "uint256"
        }
      ],
      "name": "tokenByIndex",
      "outputs": [
        {
          "internalType": "uint256",
          "name": "",
          "type": "uint256"
        }
      ],
      "stateMutability": "view",
      "type": "function",
      "constant": true
    },
    {
      "inputs": [
        {
          "internalType": "address",
          "name": "owner",
          "type": "address"
        },
        {
          "internalType": "uint256",
          "name": "index",
          "type": "uint256"
        }
      ],
      "name": "tokenOfOwnerByIndex",
      "outputs": [
        {
          "internalType": "uint256",
          "name": "",
          "type": "uint256"
        }
      ],
      "stateMutability": "view",
      "type": "function",
      "constant": true
    },
    {
      "inputs": [
        {
          "internalType": "uint256",
          "name": "_tokenId",
          "type": "uint256"
        }
      ],
      "name": "tokenURI",
      "outputs": [
        {
          "internalType": "string",
          "name": "",
          "type": "string"
        }
      ],
      "stateMutability": "pure",
      "type": "function",
      "constant": true
    },
    {
      "inputs": [],
      "name": "totalSupply",
      "outputs": [
        {
          "internalType": "uint256",
          "name": "",
          "type": "uint256"
        }
      ],
      "stateMutability": "view",
      "type": "function",
      "constant": true
    },
    {
      "inputs": [
        {
          "internalType": "address",
          "name": "from",
          "type": "address"
        },
        {
          "internalType": "address",
          "name": "to",
          "type": "address"
        },
        {
          "internalType": "uint256",
          "name": "tokenId",
          "type": "uint256"
        }
      ],
      "name": "transferFrom",
      "outputs": [],
      "stateMutability": "nonpayable",
      "type": "function"
    },
    {
      "inputs": [
        {
          "internalType": "address",
          "name": "newOwner",
          "type": "address"
        }
      ],
      "name": "transferOwnership",
      "outputs": [],
      "stateMutability": "nonpayable",
      "type": "function"
    },
    {
      "inputs": [],
      "name": "baseTokenURI",
      "outputs": [
        {
          "internalType": "string",
          "name": "",
          "type": "string"
        }
      ],
      "stateMutability": "pure",
      "type": "function",
      "constant": true
    },
    {
      "inputs": [],
      "name": "contractURI",
      "outputs": [
        {
          "internalType": "string",
          "name": "",
          "type": "string"
        }
      ],
      "stateMutability": "pure",
      "type": "function",
      "constant": true
    },
    {
      "inputs": [
        {
          "internalType": "address",
          "name": "_to",
          "type": "address"
        },
        {
          "internalType": "uint256",
          "name": "token_id",
          "type": "uint256"
        },
        {
          "internalType": "uint256",
          "name": "product_id",
          "type": "uint256"
        }
      ],
      "name": "mintTo",
      "outputs": [],
      "stateMutability": "nonpayable",
      "type": "function"
    },
    {
      "inputs": [
        {
          "internalType": "address",
          "name": "_to",
          "type": "address"
        },
        {
          "internalType": "uint256",
          "name": "newTokenId",
          "type": "uint256"
        }
      ],
      "name": "mintTo",
      "outputs": [],
      "stateMutability": "nonpayable",
      "type": "function"
    }
  ],
  "bytecode": "0x60806040523480156200001157600080fd5b5060405162001dd138038062001dd18339810160408190526200003491620001d9565b60405180604001604052806007815260200166141c9bd91d58dd60ca1b81525060405180604001604052806004815260200163141493d160e21b81525082828281600090805190602001906200008c92919062000133565b508051620000a290600190602084019062000133565b5050506000620000b76200012f60201b60201c565b600a80546001600160a01b0319166001600160a01b038316908117909155604051919250906000907f8be0079c531659141344cd1fd0a4f28419497f9722a3daafe3b4186f6b6457e0908290a350600b80546001600160a01b0319166001600160a01b03929092169190911790555062000246915050565b3390565b828054620001419062000209565b90600052602060002090601f016020900481019282620001655760008555620001b0565b82601f106200018057805160ff1916838001178555620001b0565b82800160010185558215620001b0579182015b82811115620001b057825182559160200191906001019062000193565b50620001be929150620001c2565b5090565b5b80821115620001be5760008155600101620001c3565b600060208284031215620001eb578081fd5b81516001600160a01b038116811462000202578182fd5b9392505050565b600181811c908216806200021e57607f821691505b602082108114156200024057634e487b7160e01b600052602260045260246000fd5b50919050565b611b7b80620002566000396000f3fe608060405234801561001057600080fd5b506004361061011d5760003560e01c806301ffc9a71461012257806306fdde031461014a578063081812fc1461015f578063095ea7b31461017f57806318160ddd1461019457806323b872dd146101a65780632baf2acb146101b95780632f745c59146101cc57806342842e0e146101df578063449a52f8146101f25780634f6ccce7146102055780636352211e1461021857806370a082311461022b578063715018a61461023e5780638da5cb5b1461024657806395d89b411461024e578063a22cb46514610256578063b88d4fde14610269578063c87b56dd1461027c578063d547cfb71461028f578063e8a3d48514610297578063e985e9c51461029f578063f2fde38b146102b2575b600080fd5b61013561013036600461179d565b6102c5565b60405190151581526020015b60405180910390f35b6101526102f2565b60405161014191906118b5565b61017261016d3660046117f1565b610384565b6040516101419190611864565b61019261018d36600461173e565b610411565b005b6008545b604051908152602001610141565b6101926101b43660046115f5565b610522565b6101926101c7366004611769565b610553565b6101986101da36600461173e565b6105ca565b6101926101ed3660046115f5565b610663565b61019261020036600461173e565b61067e565b6101986102133660046117f1565b6106bb565b6101726102263660046117f1565b61075c565b61019861023936600461159a565b6107d3565b61019261085a565b6101726108d3565b6101526108e2565b61019261026436600461170d565b6108f1565b610192610277366004611635565b6109bf565b61015261028a3660046117f1565b6109f7565b610152610a31565b610152610a51565b6101356102ad3660046115bd565b610a71565b6101926102c036600461159a565b610b25565b60006001600160e01b0319821663780e9d6360e01b14806102ea57506102ea82610c15565b90505b919050565b60606000805461030190611a0f565b80601f016020809104026020016040519081016040528092919081815260200182805461032d90611a0f565b801561037a5780601f1061034f5761010080835404028352916020019161037a565b820191906000526020600020905b81548152906001019060200180831161035d57829003601f168201915b5050505050905090565b600061038f82610c65565b6103f55760405162461bcd60e51b815260206004820152602c60248201527f4552433732313a20617070726f76656420717565727920666f72206e6f6e657860448201526b34b9ba32b73a103a37b5b2b760a11b60648201526084015b60405180910390fd5b506000908152600460205260409020546001600160a01b031690565b600061041c8261075c565b9050806001600160a01b0316836001600160a01b0316141561048a5760405162461bcd60e51b815260206004820152602160248201527f4552433732313a20617070726f76616c20746f2063757272656e74206f776e656044820152603960f91b60648201526084016103ec565b336001600160a01b03821614806104a657506104a68133610c82565b6105135760405162461bcd60e51b815260206004820152603860248201527f4552433732313a20617070726f76652063616c6c6572206973206e6f74206f776044820152771b995c881b9bdc88185c1c1c9bdd995908199bdc88185b1b60421b60648201526084016103ec565b61051d8383610cb0565b505050565b61052c3382610d1e565b6105485760405162461bcd60e51b81526004016103ec9061194f565b61051d838383610de0565b3361055c6108d3565b6001600160a01b0316146105825760405162461bcd60e51b81526004016103ec9061191a565b61058c838361067e565b60408051838152602081018390527f0a8baf1a40d5e4a8bfdc9ab231353378d5a3e45cee41d5b5455b4e0dbefa1991910160405180910390a1505050565b60006105d5836107d3565b82106106375760405162461bcd60e51b815260206004820152602b60248201527f455243373231456e756d657261626c653a206f776e657220696e646578206f7560448201526a74206f6620626f756e647360a81b60648201526084016103ec565b506001600160a01b03821660009081526006602090815260408083208484529091529020545b92915050565b61051d838383604051806020016040528060008152506109bf565b336106876108d3565b6001600160a01b0316146106ad5760405162461bcd60e51b81526004016103ec9061191a565b6106b78282610f8b565b5050565b60006106c660085490565b82106107295760405162461bcd60e51b815260206004820152602c60248201527f455243373231456e756d657261626c653a20676c6f62616c20696e646578206f60448201526b7574206f6620626f756e647360a01b60648201526084016103ec565b6008828154811061074a57634e487b7160e01b600052603260045260246000fd5b90600052602060002001549050919050565b6000818152600260205260408120546001600160a01b0316806102ea5760405162461bcd60e51b815260206004820152602960248201527f4552433732313a206f776e657220717565727920666f72206e6f6e657869737460448201526832b73a103a37b5b2b760b91b60648201526084016103ec565b60006001600160a01b03821661083e5760405162461bcd60e51b815260206004820152602a60248201527f4552433732313a2062616c616e636520717565727920666f7220746865207a65604482015269726f206164647265737360b01b60648201526084016103ec565b506001600160a01b031660009081526003602052604090205490565b336108636108d3565b6001600160a01b0316146108895760405162461bcd60e51b81526004016103ec9061191a565b600a546040516000916001600160a01b0316907f8be0079c531659141344cd1fd0a4f28419497f9722a3daafe3b4186f6b6457e0908390a3600a80546001600160a01b0319169055565b600a546001600160a01b031690565b60606001805461030190611a0f565b6001600160a01b0382163314156109465760405162461bcd60e51b815260206004820152601960248201527822a9219b99189d1030b8383937bb32903a379031b0b63632b960391b60448201526064016103ec565b3360008181526005602090815260408083206001600160a01b0387168085529252909120805460ff1916841515179055906001600160a01b03167f17307eab39ab6107e8899845ad3d59bd9653f200f220920489ca2b5937696c31836040516109b3911515815260200190565b60405180910390a35050565b6109c93383610d1e565b6109e55760405162461bcd60e51b81526004016103ec9061194f565b6109f1848484846110c9565b50505050565b6060610a01610a31565b610a0a836110fc565b604051602001610a1b929190611835565b6040516020818303038152906040529050919050565b6060604051806060016040528060218152602001611b2560219139905090565b60606040518060600160405280603b8152602001611aea603b9139905090565b600b5460405163c455279160e01b81526000916001600160a01b039081169190841690829063c455279190610aaa908890600401611864565b60206040518083038186803b158015610ac257600080fd5b505afa158015610ad6573d6000803e3d6000fd5b505050506040513d601f19601f82011682018060405250810190610afa91906117d5565b6001600160a01b03161415610b1357600191505061065d565b610b1d8484610c82565b949350505050565b33610b2e6108d3565b6001600160a01b031614610b545760405162461bcd60e51b81526004016103ec9061191a565b6001600160a01b038116610bb95760405162461bcd60e51b815260206004820152602660248201527f4f776e61626c653a206e6577206f776e657220697320746865207a65726f206160448201526564647265737360d01b60648201526084016103ec565b600a546040516001600160a01b038084169216907f8be0079c531659141344cd1fd0a4f28419497f9722a3daafe3b4186f6b6457e090600090a3600a80546001600160a01b0319166001600160a01b0392909216919091179055565b60006001600160e01b031982166380ac58cd60e01b1480610c4657506001600160e01b03198216635b5e139f60e01b145b806102ea57506301ffc9a760e01b6001600160e01b03198316146102ea565b6000908152600260205260409020546001600160a01b0316151590565b6001600160a01b03918216600090815260056020908152604080832093909416825291909152205460ff1690565b600081815260046020526040902080546001600160a01b0319166001600160a01b0384169081179091558190610ce58261075c565b6001600160a01b03167f8c5be1e5ebec7d5bd14f71427d1e84f3dd0314c0f7b2291e5b200ac8c7c3b92560405160405180910390a45050565b6000610d2982610c65565b610d8a5760405162461bcd60e51b815260206004820152602c60248201527f4552433732313a206f70657261746f7220717565727920666f72206e6f6e657860448201526b34b9ba32b73a103a37b5b2b760a11b60648201526084016103ec565b6000610d958361075c565b9050806001600160a01b0316846001600160a01b03161480610dd05750836001600160a01b0316610dc584610384565b6001600160a01b0316145b80610b1d5750610b1d8185610c82565b826001600160a01b0316610df38261075c565b6001600160a01b031614610e5b5760405162461bcd60e51b815260206004820152602960248201527f4552433732313a207472616e73666572206f6620746f6b656e2074686174206960448201526839903737ba1037bbb760b91b60648201526084016103ec565b6001600160a01b038216610ebd5760405162461bcd60e51b8152602060048201526024808201527f4552433732313a207472616e7366657220746f20746865207a65726f206164646044820152637265737360e01b60648201526084016103ec565b610ec8838383611216565b610ed3600082610cb0565b6001600160a01b0383166000908152600360205260408120805460019290610efc9084906119cc565b90915550506001600160a01b0382166000908152600360205260408120805460019290610f2a9084906119a0565b909155505060008181526002602052604080822080546001600160a01b0319166001600160a01b0386811691821790925591518493918716917fddf252ad1be2c89b69c2b068fc378daa952ba7f163c4a11628f55a4df523b3ef91a4505050565b6001600160a01b038216610fe15760405162461bcd60e51b815260206004820181905260248201527f4552433732313a206d696e7420746f20746865207a65726f206164647265737360448201526064016103ec565b610fea81610c65565b156110365760405162461bcd60e51b815260206004820152601c60248201527b115490cdcc8c4e881d1bdad95b88185b1c9958591e481b5a5b9d195960221b60448201526064016103ec565b61104260008383611216565b6001600160a01b038216600090815260036020526040812080546001929061106b9084906119a0565b909155505060008181526002602052604080822080546001600160a01b0319166001600160a01b03861690811790915590518392907fddf252ad1be2c89b69c2b068fc378daa952ba7f163c4a11628f55a4df523b3ef908290a45050565b6110d4848484610de0565b6110e0848484846112d3565b6109f15760405162461bcd60e51b81526004016103ec906118c8565b60608161112157506040805180820190915260018152600360fc1b60208201526102ed565b8160005b811561114b578061113581611a4a565b91506111449050600a836119b8565b9150611125565b6000816001600160401b0381111561117357634e487b7160e01b600052604160045260246000fd5b6040519080825280601f01601f19166020018201604052801561119d576020820181803683370190505b5090505b8415610b1d576111b26001836119cc565b91506111bf600a86611a65565b6111ca9060306119a0565b60f81b8183815181106111ed57634e487b7160e01b600052603260045260246000fd5b60200101906001600160f81b031916908160001a90535061120f600a866119b8565b94506111a1565b6001600160a01b0383166112715761126c81600880546000838152600960205260408120829055600182018355919091527ff3f7a9fe364faab93b216da50a3214154f22a0a2b415b23a84c8169e8b636ee30155565b611294565b816001600160a01b0316836001600160a01b0316146112945761129483826113e0565b6001600160a01b0382166112b0576112ab8161147d565b61051d565b826001600160a01b0316826001600160a01b03161461051d5761051d8282611556565b60006001600160a01b0384163b156113d557604051630a85bd0160e11b81526001600160a01b0385169063150b7a0290611317903390899088908890600401611878565b602060405180830381600087803b15801561133157600080fd5b505af1925050508015611361575060408051601f3d908101601f1916820190925261135e918101906117b9565b60015b6113bb573d80801561138f576040519150601f19603f3d011682016040523d82523d6000602084013e611394565b606091505b5080516113b35760405162461bcd60e51b81526004016103ec906118c8565b805181602001fd5b6001600160e01b031916630a85bd0160e11b149050610b1d565b506001949350505050565b600060016113ed846107d3565b6113f791906119cc565b60008381526007602052604090205490915080821461144a576001600160a01b03841660009081526006602090815260408083208584528252808320548484528184208190558352600790915290208190555b5060009182526007602090815260408084208490556001600160a01b039094168352600681528383209183525290812055565b60085460009061148f906001906119cc565b600083815260096020526040812054600880549394509092849081106114c557634e487b7160e01b600052603260045260246000fd5b9060005260206000200154905080600883815481106114f457634e487b7160e01b600052603260045260246000fd5b600091825260208083209091019290925582815260099091526040808220849055858252812055600880548061153a57634e487b7160e01b600052603160045260246000fd5b6001900381819060005260206000200160009055905550505050565b6000611561836107d3565b6001600160a01b039093166000908152600660209081526040808320868452825280832085905593825260079052919091209190915550565b6000602082840312156115ab578081fd5b81356115b681611abb565b9392505050565b600080604083850312156115cf578081fd5b82356115da81611abb565b915060208301356115ea81611abb565b809150509250929050565b600080600060608486031215611609578081fd5b833561161481611abb565b9250602084013561162481611abb565b929592945050506040919091013590565b6000806000806080858703121561164a578081fd5b843561165581611abb565b9350602085013561166581611abb565b92506040850135915060608501356001600160401b0380821115611687578283fd5b818701915087601f83011261169a578283fd5b8135818111156116ac576116ac611aa5565b604051601f8201601f19908116603f011681019083821181831017156116d4576116d4611aa5565b816040528281528a60208487010111156116ec578586fd5b82602086016020830137918201602001949094529598949750929550505050565b6000806040838503121561171f578182fd5b823561172a81611abb565b9150602083013580151581146115ea578182fd5b60008060408385031215611750578182fd5b823561175b81611abb565b946020939093013593505050565b60008060006060848603121561177d578283fd5b833561178881611abb565b95602085013595506040909401359392505050565b6000602082840312156117ae578081fd5b81356115b681611ad3565b6000602082840312156117ca578081fd5b81516115b681611ad3565b6000602082840312156117e6578081fd5b81516115b681611abb565b600060208284031215611802578081fd5b5035919050565b600081518084526118218160208601602086016119e3565b601f01601f19169290920160200192915050565b600083516118478184602088016119e3565b83519083019061185b8183602088016119e3565b01949350505050565b6001600160a01b0391909116815260200190565b6001600160a01b03858116825284166020820152604081018390526080606082018190526000906118ab90830184611809565b9695505050505050565b6000602082526115b66020830184611809565b60208082526032908201527f4552433732313a207472616e7366657220746f206e6f6e20455243373231526560408201527131b2b4bb32b91034b6b83632b6b2b73a32b960711b606082015260800190565b6020808252818101527f4f776e61626c653a2063616c6c6572206973206e6f7420746865206f776e6572604082015260600190565b60208082526031908201527f4552433732313a207472616e736665722063616c6c6572206973206e6f74206f6040820152701ddb995c881b9bdc88185c1c1c9bdd9959607a1b606082015260800190565b600082198211156119b3576119b3611a79565b500190565b6000826119c7576119c7611a8f565b500490565b6000828210156119de576119de611a79565b500390565b60005b838110156119fe5781810151838201526020016119e6565b838111156109f15750506000910152565b600181811c90821680611a2357607f821691505b60208210811415611a4457634e487b7160e01b600052602260045260246000fd5b50919050565b6000600019821415611a5e57611a5e611a79565b5060010190565b600082611a7457611a74611a8f565b500690565b634e487b7160e01b600052601160045260246000fd5b634e487b7160e01b600052601260045260246000fd5b634e487b7160e01b600052604160045260246000fd5b6001600160a01b0381168114611ad057600080fd5b50565b6001600160e01b031981168114611ad057600080fdfe68747470733a2f2f6372656174757265732d6170692e6f70656e7365612e696f2f636f6e74726163742f6f70656e7365612d637265617475726573687474703a2f2f6c6f63616c686f73743a383038302f6170692f6572633732312fa264697066735822122023180f564fbf3487a26f1a82afbfe1ad6dba68dd8cf898b3b6f008d2fe71aa3f64736f6c63430008030033",
  "immutableReferences": {},
  "source": "// SPDX-License-Identifier: MIT\n\npragma solidity ^0.8.0;\n\nimport \"./ERC721Tradable.sol\";\n\n/**\n * @title Creature\n * Creature - a contract for my non-fungible creatures.\n */\ncontract Product is ERC721Tradable {\n\t\n\tevent MintToken(uint256 token_id, uint256 product_id);\n    \n    constructor(address _proxyRegistryAddress)\n        ERC721Tradable(\"Product\", \"PROD\", _proxyRegistryAddress)\n    {}\n\n    function baseTokenURI() override public pure returns (string memory) {\n        return \"http://localhost:8080/api/erc721/\";\n    }\n\n    function contractURI() public pure returns (string memory) {\n        return \"https://creatures-api.opensea.io/contract/opensea-creatures\";\n    }\n\n    function mintTo(address _to, uint256 token_id, uint256 product_id) public onlyOwner {\n    \tmintTo(_to, token_id);\n    \temit MintToken(token_id, product_id);\n    }\n}\n",
  "sourcePath": "/Volumes/WORK/MyWork/NFTmarket/proj/NFTMarket/contract/contracts/Product.sol",
  "compiler": {
    "name": "solc",
    "version": "0.8.3+commit.8d00100c.Emscripten.clang"
  },
  "schemaVersion": "3.3.4",
  "updatedAt": "2021-04-07T18:16:19.669Z",
  "networkType": "ethereum",
  "devdoc": {
    "kind": "dev",
    "methods": {
      "approve(address,uint256)": {
        "details": "See {IERC721-approve}."
      },
      "balanceOf(address)": {
        "details": "See {IERC721-balanceOf}."
      },
      "getApproved(uint256)": {
        "details": "See {IERC721-getApproved}."
      },
      "mintTo(address,uint256)": {
        "details": "Mints a token to an address with a tokenURI.",
        "params": {
          "_to": "address of the future owner of the token"
        }
      },
      "name()": {
        "details": "See {IERC721Metadata-name}."
      },
      "owner()": {
        "details": "Returns the address of the current owner."
      },
      "ownerOf(uint256)": {
        "details": "See {IERC721-ownerOf}."
      },
      "renounceOwnership()": {
        "details": "Leaves the contract without owner. It will not be possible to call `onlyOwner` functions anymore. Can only be called by the current owner. NOTE: Renouncing ownership will leave the contract without an owner, thereby removing any functionality that is only available to the owner."
      },
      "safeTransferFrom(address,address,uint256)": {
        "details": "See {IERC721-safeTransferFrom}."
      },
      "safeTransferFrom(address,address,uint256,bytes)": {
        "details": "See {IERC721-safeTransferFrom}."
      },
      "setApprovalForAll(address,bool)": {
        "details": "See {IERC721-setApprovalForAll}."
      },
      "supportsInterface(bytes4)": {
        "details": "See {IERC165-supportsInterface}."
      },
      "symbol()": {
        "details": "See {IERC721Metadata-symbol}."
      },
      "tokenByIndex(uint256)": {
        "details": "See {IERC721Enumerable-tokenByIndex}."
      },
      "tokenOfOwnerByIndex(address,uint256)": {
        "details": "See {IERC721Enumerable-tokenOfOwnerByIndex}."
      },
      "totalSupply()": {
        "details": "See {IERC721Enumerable-totalSupply}."
      },
      "transferFrom(address,address,uint256)": {
        "details": "See {IERC721-transferFrom}."
      },
      "transferOwnership(address)": {
        "details": "Transfers ownership of the contract to a new account (`newOwner`). Can only be called by the current owner."
      }
    },
    "title": "Creature Creature - a contract for my non-fungible creatures.",
    "version": 1
  },
  "userdoc": {
    "kind": "user",
    "methods": {
      "isApprovedForAll(address,address)": {
        "notice": "Override isApprovedForAll to whitelist user's OpenSea proxy accounts to enable gas-less listings."
      }
    },
    "version": 1
  }
}